{
  "_format": "hh-sol-artifact-1",
  "contractName": "BlockCred",
  "sourceName": "contracts/BlockCred.sol",
  "abi": [
    {
      "inputs": [],
      "stateMutability": "nonpayable",
      "type": "constructor"
    },
    {
      "anonymous": false,
      "inputs": [
        {
          "indexed": false,
          "internalType": "string",
          "name": "certId",
          "type": "string"
        },
        {
          "indexed": false,
          "internalType": "string",
          "name": "studentName",
          "type": "string"
        },
        {
          "indexed": false,
          "internalType": "string",
          "name": "degree",
          "type": "string"
        },
        {
          "indexed": false,
          "internalType": "uint256",
          "name": "issueDate",
          "type": "uint256"
        },
        {
          "indexed": false,
          "internalType": "string",
          "name": "pdfHash",
          "type": "string"
        }
      ],
      "name": "CertificateIssued",
      "type": "event"
    },
    {
      "anonymous": false,
      "inputs": [
        {
          "indexed": false,
          "internalType": "string",
          "name": "certId",
          "type": "string"
        }
      ],
      "name": "CertificateRevoked",
      "type": "event"
    },
    {
      "inputs": [
        {
          "internalType": "string",
          "name": "",
          "type": "string"
        }
      ],
      "name": "certificateHashes",
      "outputs": [
        {
          "internalType": "string",
          "name": "",
          "type": "string"
        }
      ],
      "stateMutability": "view",
      "type": "function"
    },
    {
      "inputs": [
        {
          "internalType": "string",
          "name": "",
          "type": "string"
        }
      ],
      "name": "certificates",
      "outputs": [
        {
          "internalType": "string",
          "name": "certId",
          "type": "string"
        },
        {
          "internalType": "string",
          "name": "studentName",
          "type": "string"
        },
        {
          "internalType": "string",
          "name": "degree",
          "type": "string"
        },
        {
          "internalType": "string",
          "name": "pdfHash",
          "type": "string"
        },
        {
          "internalType": "bool",
          "name": "revoked",
          "type": "bool"
        },
        {
          "internalType": "uint256",
          "name": "issueDate",
          "type": "uint256"
        }
      ],
      "stateMutability": "view",
      "type": "function"
    },
    {
      "inputs": [
        {
          "internalType": "string",
          "name": "certId",
          "type": "string"
        }
      ],
      "name": "getCertificate",
      "outputs": [
        {
          "internalType": "string",
          "name": "",
          "type": "string"
        },
        {
          "internalType": "string",
          "name": "",
          "type": "string"
        },
        {
          "internalType": "string",
          "name": "",
          "type": "string"
        },
        {
          "internalType": "string",
          "name": "",
          "type": "string"
        },
        {
          "internalType": "bool",
          "name": "",
          "type": "bool"
        },
        {
          "internalType": "uint256",
          "name": "",
          "type": "uint256"
        }
      ],
      "stateMutability": "view",
      "type": "function"
    },
    {
      "inputs": [
        {
          "internalType": "string",
          "name": "certId",
          "type": "string"
        }
      ],
      "name": "getCertificateHash",
      "outputs": [
        {
          "internalType": "string",
          "name": "",
          "type": "string"
        }
      ],
      "stateMutability": "view",
      "type": "function"
    },
    {
      "inputs": [
        {
          "internalType": "string",
          "name": "certId",
          "type": "string"
        },
        {
          "internalType": "string",
          "name": "studentName",
          "type": "string"
        },
        {
          "internalType": "string",
          "name": "degree",
          "type": "string"
        },
        {
          "internalType": "string",
          "name": "pdfHash",
          "type": "string"
        }
      ],
      "name": "issueCertificateWithHash",
      "outputs": [],
      "stateMutability": "nonpayable",
      "type": "function"
    },
    {
      "inputs": [],
      "name": "owner",
      "outputs": [
        {
          "internalType": "address",
          "name": "",
          "type": "address"
        }
      ],
      "stateMutability": "view",
      "type": "function"
    },
    {
      "inputs": [
        {
          "internalType": "string",
          "name": "certId",
          "type": "string"
        }
      ],
      "name": "revokeCertificate",
      "outputs": [],
      "stateMutability": "nonpayable",
      "type": "function"
    }
  ],
  "bytecode": "0x6080604052348015600f57600080fd5b50600080546001600160a01b0319163317905561115a806100316000396000f3fe608060405234801561001057600080fd5b506004361061007d5760003560e01c80638da5cb5b1161005b5780638da5cb5b146100d35780638f2b91ea146100fe578063ed0f2e7514610123578063f326c2871461013657600080fd5b80630499ba6f146100825780630a88deaf146100ab578063142e1542146100be575b600080fd5b610095610090366004610d55565b610149565b6040516100a29190610de2565b60405180910390f35b6100956100b9366004610d55565b6101f9565b6100d16100cc366004610d55565b61029e565b005b6000546100e6906001600160a01b031681565b6040516001600160a01b0390911681526020016100a2565b61011161010c366004610d55565b61047d565b6040516100a296959493929190610dfc565b610111610131366004610d55565b6106e0565b6100d1610144366004610e5f565b6109a9565b606060028260405161015b9190610f1f565b9081526020016040518091039020805461017490610f3b565b80601f01602080910402602001604051908101604052809291908181526020018280546101a090610f3b565b80156101ed5780601f106101c2576101008083540402835291602001916101ed565b820191906000526020600020905b8154815290600101906020018083116101d057829003601f168201915b50505050509050919050565b80516020818301810180516002825292820191909301209152805461021d90610f3b565b80601f016020809104026020016040519081016040528092919081815260200182805461024990610f3b565b80156102965780601f1061026b57610100808354040283529160200191610296565b820191906000526020600020905b81548152906001019060200180831161027957829003601f168201915b505050505081565b6000546001600160a01b031633146102d15760405162461bcd60e51b81526004016102c890610f75565b60405180910390fd5b60008151116103225760405162461bcd60e51b815260206004820152601a60248201527f436572746966696361746520494420697320726571756972656400000000000060448201526064016102c8565b6001816040516103329190610f1f565b908152604051908190036020019020805461034c90610f3b565b905060000361039d5760405162461bcd60e51b815260206004820152601a60248201527f436572746966696361746520646f6573206e6f7420657869737400000000000060448201526064016102c8565b6001816040516103ad9190610f1f565b9081526040519081900360200190206004015460ff16156104105760405162461bcd60e51b815260206004820152601b60248201527f436572746966696361746520616c7265616479207265766f6b6564000000000060448201526064016102c8565b600180826040516104219190610f1f565b908152604051908190036020018120600401805492151560ff19909316929092179091557f266095b5af7e2323760fef151f1d78896740cd2cc1b73a6357ff9e4c3fdae74090610472908390610de2565b60405180910390a150565b80516020818301810180516001825292820191909301209152805481906104a390610f3b565b80601f01602080910402602001604051908101604052809291908181526020018280546104cf90610f3b565b801561051c5780601f106104f15761010080835404028352916020019161051c565b820191906000526020600020905b8154815290600101906020018083116104ff57829003601f168201915b50505050509080600101805461053190610f3b565b80601f016020809104026020016040519081016040528092919081815260200182805461055d90610f3b565b80156105aa5780601f1061057f576101008083540402835291602001916105aa565b820191906000526020600020905b81548152906001019060200180831161058d57829003601f168201915b5050505050908060020180546105bf90610f3b565b80601f01602080910402602001604051908101604052809291908181526020018280546105eb90610f3b565b80156106385780601f1061060d57610100808354040283529160200191610638565b820191906000526020600020905b81548152906001019060200180831161061b57829003601f168201915b50505050509080600301805461064d90610f3b565b80601f016020809104026020016040519081016040528092919081815260200182805461067990610f3b565b80156106c65780601f1061069b576101008083540402835291602001916106c6565b820191906000526020600020905b8154815290600101906020018083116106a957829003601f168201915b505050506004830154600590930154919260ff1691905086565b60608060608060008060006001886040516106fb9190610f1f565b90815260200160405180910390206040518060c001604052908160008201805461072490610f3b565b80601f016020809104026020016040519081016040528092919081815260200182805461075090610f3b565b801561079d5780601f106107725761010080835404028352916020019161079d565b820191906000526020600020905b81548152906001019060200180831161078057829003601f168201915b505050505081526020016001820180546107b690610f3b565b80601f01602080910402602001604051908101604052809291908181526020018280546107e290610f3b565b801561082f5780601f106108045761010080835404028352916020019161082f565b820191906000526020600020905b81548152906001019060200180831161081257829003601f168201915b5050505050815260200160028201805461084890610f3b565b80601f016020809104026020016040519081016040528092919081815260200182805461087490610f3b565b80156108c15780601f10610896576101008083540402835291602001916108c1565b820191906000526020600020905b8154815290600101906020018083116108a457829003601f168201915b505050505081526020016003820180546108da90610f3b565b80601f016020809104026020016040519081016040528092919081815260200182805461090690610f3b565b80156109535780601f1061092857610100808354040283529160200191610953565b820191906000526020600020905b81548152906001019060200180831161093657829003601f168201915b5050509183525050600482015460ff161515602080830191909152600590920154604091820152825191830151908301516060840151608085015160a090950151939d929c50909a509850919650945092505050565b6000546001600160a01b031633146109d35760405162461bcd60e51b81526004016102c890610f75565b6000845111610a245760405162461bcd60e51b815260206004820152601a60248201527f436572746966696361746520494420697320726571756972656400000000000060448201526064016102c8565b6000835111610a755760405162461bcd60e51b815260206004820152601860248201527f53747564656e74206e616d65206973207265717569726564000000000000000060448201526064016102c8565b6000825111610abb5760405162461bcd60e51b8152602060048201526012602482015271111959dc9959481a5cc81c995c5d5a5c995960721b60448201526064016102c8565b6000815111610b035760405162461bcd60e51b8152602060048201526014602482015273141111881a185cda081a5cc81c995c5d5a5c995960621b60448201526064016102c8565b600184604051610b139190610f1f565b9081526040519081900360200190208054610b2d90610f3b565b159050610b7c5760405162461bcd60e51b815260206004820152601a60248201527f436572746966696361746520616c72656164792065786973747300000000000060448201526064016102c8565b6040518060c0016040528085815260200184815260200183815260200182815260200160001515815260200142815250600185604051610bbc9190610f1f565b90815260405190819003602001902081518190610bd99082611006565b5060208201516001820190610bee9082611006565b5060408201516002820190610c039082611006565b5060608201516003820190610c189082611006565b50608082015160048201805460ff191691151591909117905560a0909101516005909101556040518190600290610c50908790610f1f565b90815260200160405180910390209081610c6a9190611006565b507fa624be12790fd6ac838cb03bf8cd67606901956b9a6ea4c4f72c47c1eb8142638484844285604051610ca29594939291906110c5565b60405180910390a150505050565b634e487b7160e01b600052604160045260246000fd5b600082601f830112610cd757600080fd5b813567ffffffffffffffff811115610cf157610cf1610cb0565b604051601f8201601f19908116603f0116810167ffffffffffffffff81118282101715610d2057610d20610cb0565b604052818152838201602001851015610d3857600080fd5b816020850160208301376000918101602001919091529392505050565b600060208284031215610d6757600080fd5b813567ffffffffffffffff811115610d7e57600080fd5b610d8a84828501610cc6565b949350505050565b60005b83811015610dad578181015183820152602001610d95565b50506000910152565b60008151808452610dce816020860160208601610d92565b601f01601f19169290920160200192915050565b602081526000610df56020830184610db6565b9392505050565b60c081526000610e0f60c0830189610db6565b8281036020840152610e218189610db6565b90508281036040840152610e358188610db6565b90508281036060840152610e498187610db6565b9415156080840152505060a00152949350505050565b60008060008060808587031215610e7557600080fd5b843567ffffffffffffffff811115610e8c57600080fd5b610e9887828801610cc6565b945050602085013567ffffffffffffffff811115610eb557600080fd5b610ec187828801610cc6565b935050604085013567ffffffffffffffff811115610ede57600080fd5b610eea87828801610cc6565b925050606085013567ffffffffffffffff811115610f0757600080fd5b610f1387828801610cc6565b91505092959194509250565b60008251610f31818460208701610d92565b9190910192915050565b600181811c90821680610f4f57607f821691505b602082108103610f6f57634e487b7160e01b600052602260045260246000fd5b50919050565b60208082526022908201527f4f6e6c79206f776e65722063616e20706572666f726d2074686973206163746960408201526137b760f11b606082015260800190565b601f82111561100157806000526020600020601f840160051c81016020851015610fde5750805b601f840160051c820191505b81811015610ffe5760008155600101610fea565b50505b505050565b815167ffffffffffffffff81111561102057611020610cb0565b6110348161102e8454610f3b565b84610fb7565b6020601f82116001811461106857600083156110505750848201515b600019600385901b1c1916600184901b178455610ffe565b600084815260208120601f198516915b828110156110985787850151825560209485019460019092019101611078565b50848210156110b65786840151600019600387901b60f8161c191681555b50505050600190811b01905550565b60a0815260006110d860a0830188610db6565b82810360208401526110ea8188610db6565b905082810360408401526110fe8187610db6565b905084606084015282810360808401526111188185610db6565b9897505050505050505056fea2646970667358221220fadc31a46f2be06c87250756b8ba4ed81a8cd2e3ca4e0f1b0523e59a9910c45864736f6c634300081c0033",
  "linkReferences": {},
  "deployedLinkReferences": {}
}